:02000000F0000E
:02000100F0010C
:02000200F0020A
:02000300F00308
:02000400F00406
:02000500F00504
:02000600F00602
:02000700F00700
:02000800F008FE
:02000900F009FC
:02000A00F00AFA
:02000B00F00BF8
:02000C00F00CF6
:02000D00F00DF4
:02000E00F00EF2
:02000F00F00FF0
:02001000F010EE
:02001100F011EC
:02001200F012EA
:02001300F013E8
:02001400F014E6
:02001500F015E4
:02001600F016E2
:02001700F017E0
:02001800F018DE
:02001900F019DC
:02001A00F01ADA
:02001B00F01BD8
:02001C00F01CD6
:02001D00F01DD4
:02001E00F01ED2
:02001F00F01FD0
:02002000F020CE
:02002100F021CC
:02002200F022CA
:02002300F023C8
:02002400F024C6
:02002500F025C4
:02002600F026C2
:02002700F027C0
:02002800F028BE
:02002900F029BC
:02002A00F02ABA
:02002B00F02BB8
:02002C00F02CB6
:02002D00F02DB4
:02002E00F02EB2
:02002F00F02FB0
:02003000F030AE
:02003100F031AC
:02003200F032AA
:02003300F033A8
:02003400F034A6
:02003500F035A4
:02003600F036A2
:02003700F037A0
:02003800F0389E
:02003900F0399C
:02003A00F03A9A
:02003B00F03B98
:02003C00F03C96
:02003D00F03D94
:02003E00F03E92
:02003F00F03F90
:02004000F0408E
:02004100F0418C
:02004200F0428A
:02004300F04388
:02004400F04486
:02004500F04584
:02004600F04682
:02004700F04780
:02004800F0487E
:02004900F0497C
:02004A00F04A7A
:02004B00F04B78
:02004C00F04C76
:02004D00F04D74
:02004E00F04E72
:02004F00F04F70
:02005000F0506E
:02005100F0516C
:02005200F0526A
:02005300F05368
:02005400F05466
:02005500F05564
:02005600F05662
:02005700F05760
:02005800F0585E
:02005900F0595C
:02005A00F05A5A
:02005B00F05B58
:02005C00F05C56
:02005D00F05D54
:02005E00F05E52
:02005F00F05F50
:02006000F0604E
:02006100F0614C
:02006200F0624A
:02006300F06348
:02006400F06446
:02006500F06544
:02006600F06642
:02006700F06740
:02006800F0683E
:02006900F0693C
:02006A00F06A3A
:02006B00F06B38
:02006C00F06C36
:02006D00F06D34
:02006E00F06E32
:02006F00F06F30
:02007000F0702E
:02007100F0712C
:02007200F0722A
:02007300F07328
:02007400F07426
:02007500F07524
:02007600F07622
:02007700F07720
:02007800F0781E
:02007900F0791C
:02007A00F07A1A
:02007B00F07B18
:02007C00F07C16
:02007D00F07D14
:02007E00F07E12
:02007F00F07F10
:02008000F0800E
:02008100F0810C
:02008200F0820A
:02008300F08308
:02008400F08406
:02008500F08504
:02008600F08602
:02008700F08700
:02008800F088FE
:02008900F089FC
:02008A00F08AFA
:02008B00F08BF8
:02008C00F08CF6
:02008D00F08DF4
:02008E00F08EF2
:02008F00F08FF0
:02009000F090EE
:02009100F091EC
:02009200F092EA
:02009300F093E8
:02009400F094E6
:02009500F095E4
:02009600F096E2
:02009700F097E0
:02009800F098DE
:02009900F099DC
:02009A00F09ADA
:02009B00F09BD8
:02009C00F09CD6
:02009D00F09DD4
:02009E00F09ED2
:02009F00F09FD0
:0200A000F0A0CE
:0200A100F0A1CC
:0200A200F0A2CA
:0200A300F0A3C8
:0200A400F0A4C6
:0200A500F0A5C4
:0200A600F0A6C2
:0200A700F0A7C0
:0200A800F0A8BE
:0200A900F0A9BC
:0200AA00F0AABA
:0200AB00F0ABB8
:0200AC00F0ACB6
:0200AD00F0ADB4
:0200AE00F0AEB2
:0200AF00F0AFB0
:0200B000F0B0AE
:0200B100F0B1AC
:0200B200F0B2AA
:0200B300F0B3A8
:0200B400F0B4A6
:0200B500F0B5A4
:0200B600F0B6A2
:0200B700F0B7A0
:0200B800F0B89E
:0200B900F0B99C
:0200BA00F0BA9A
:0200BB00F0BB98
:0200BC00F0BC96
:0200BD00F0BD94
:0200BE00F0BE92
:0200BF00F0BF90
:0200C000F0C08E
:0200C100F0C18C
:0200C200F0C28A
:0200C300F0C388
:0200C400F0C486
:0200C500F0C584
:0200C600F0C682
:0200C700F0C780
:0200C800F0C87E
:0200C900F0C97C
:0200CA00F0CA7A
:0200CB00F0CB78
:0200CC00F0CC76
:0200CD00F0CD74
:0200CE00F0CE72
:0200CF00F0CF70
:0200D000F0D06E
:0200D100F0D16C
:0200D200F0D26A
:0200D300F0D368
:0200D400F0D466
:0200D500F0D564
:0200D600F0D662
:0200D700F0D760
:0200D800F0D85E
:0200D900F0D95C
:0200DA00F0DA5A
:0200DB00F0DB58
:0200DC00F0DC56
:0200DD00F0DD54
:0200DE00F0DE52
:0200DF00F0DF50
:0200E000F0E04E
:0200E100F0E14C
:0200E200F0E24A
:0200E300F0E348
:0200E400F0E446
:0200E500F0E544
:0200E600F0E642
:0200E700F0E740
:0200E800F0E83E
:0200E900F0E93C
:0200EA00F0EA3A
:0200EB00F0EB38
:0200EC00F0EC36
:0200ED00F0ED34
:0200EE00F0EE32
:0200EF00F0EF30
:0200F000F0F02E
:0200F100F0F12C
:0200F200F0F22A
:0200F300F0F328
:0200F400F0F426
:0200F500F0F524
:0200F600F0F622
:0200F700F0F720
:0200F800F0F81E
:0200F900F0F91C
:0200FA00F0FA1A
:0200FB00F0FB18
:0200FC00F0FC16
:0200FD00F0FD14
:0200FE00F0FE12
:0200FF00F0FF10
:00000001FF
