:02000000000AF4
:020001000014E9
:02000200001EDE
:020003000028D3
:020004000032C8
:02000500003CBD
:020006000046B2
:020007000050A7
:02000800005A9C
:02000900006491
:02000A00006E86
:02000B0000787B
:02000C00008270
:02000D00008C65
:02000E0000965A
:02000F0000A04F
:0200100000AA44
:0200110000B439
:0200120000BE2E
:0200130000C823
:0200140000D218
:0200150000DC0D
:0200160000E602
:0200170000F0F7
:0200180000FAEC
:020019000104E0
:02001A00010ED5
:02001B000118CA
:02001C000122BF
:02001D00012CB4
:02001E000136A9
:02001F0001409E
:02002000014A93
:02002100015488
:02002200015E7D
:02002300016872
:02002400017267
:02002500017C5C
:02002600018651
:02002700019046
:02002800019A3B
:0200290001A430
:02002A0001AE25
:02002B0001B81A
:02002C0001C20F
:02002D0001CC04
:02002E0001D6F9
:02002F0001E0EE
:0200300001EAE3
:0200310001F4D8
:0200320001FECD
:020033000208C1
:020034000212B6
:02003500021CAB
:020036000226A0
:02003700023095
:02003800023A8A
:0200390002447F
:02003A00024E74
:02003B00025869
:02003C0002625E
:02003D00026C53
:02003E00027648
:02003F0002803D
:00000001FF
